:020000040800F2
:1000000000000220492600089126000891260008D9
:1000100091260008912600089126000800000000A3
:100020000000000000000000000000009126000811
:100030009126000800000000912600089126000883
:1000400091260008912600089126000891260008B4
:1000500091260008912600089126000891260008A4
:100060009126000891260008912600089126000894
:100070009126000891260008912600089126000884
:100080009126000891260008912600089126000874
:100090009126000891260008912600089126000864
:1000A0009126000891260008912600089126000854
:1000B0009126000891260008912600089126000844
:1000C0009126000891260008912600089126000834
:1000D0009126000891260008912600089126000824
:1000E0009126000891260008912600089126000814
:1000F0009126000891260008912600089126000804
:1001000091260008912600089126000891260008F3
:10011000912600089126000891260008BD050008D8
:1001200091260008912600089126000891260008D3
:1001300091260008912600089126000891260008C3
:1001400091260008912600089126000891260008B3
:1001500091260008912600089126000891260008A3
:100160009126000891260008912600089126000893
:100170009126000891260008912600089126000883
:080180009126000891260008F9
:1001880010B5054C237833B9044B13B10448AFF3C9
:1001980000800123237010BD4C07002000000000E0
:1001A8007029000808B5034B1BB103490348AFF396
:1001B800008008BD000000005007002070290008DA
:1001C800154B002B08BF134B9D46A3F5803A002121
:1001D8008B460F461348144A121A02F08BFA0F4B3B
:1001E800002B00D098470E4B002B00D098470020DA
:1001F800002104000D000D48002802D00C4802F030
:1002080039FB02F053FA2000290002F0B1F902F09C
:100218003DFA00BF000008000000000000000000D8
:10022800000000004C070020C80700207D280008B7
:10023800892800083F49404BD1F888203F4842F4BC
:100248007002C1F888201A68002142F001021A6081
:1002580099601A6822F0847222F480321A60586019
:100268001A6882B022F480221A60D9600091019144
:100278001A6842F480321A6003E0009AB2F5A06F5F
:1002880009D01A6802F400320192009A01320092F1
:10029800019A002AF1D0284B1B6813F4003318BFC9
:1002A80001230193019B012B14D0234B24499A6805
:1002B80022F400029A60C3F884101A6842F080623F
:1002C8001A601A681201FCD51A4B4FF000629A6046
:1002D80002B07047184B1B491A6C1B4842F08052F9
:1002E8001A640A6842F480420A609A689A609A68B6
:1002F80042F400429A609A6842F4A0529A605860A8
:100308001A6842F080721A601A689101FCD50F4A87
:10031800094940F2056010609A6822F003029A6069
:100328009A6842F002029A608B6803F00C03082B6B
:10033800FAD1BAE700ED00E000380240103000249E
:10034800804000300070004008544007003C0240E4
:10035800154A936803F00C03042B0BD0082B0BD021
:10036800124B114A12499268C2F303128A5CD340B5
:100378000B6170470F4BF4E75068516852684302AD
:10038800C2F388124CBF0B4B084B01F03F01B3FB83
:10039800F1F303FB02F3044A5268C2F3014201324B
:1003A8005200B3FBF2F3DCE7003802400024F4000B
:1003B8000400002000127A001849194A0B6C43F017
:1003C800400330B40B64532584234FF47A741585A5
:1003D800D4621380938A9BB243F0010393821388FB
:1003E8009BB243F00103138050B1138ADB07FCD59D
:1003F800138A23F001031B041B0C01381382F4D168
:100408000749064A0B8823F001031B041B0C0B80C9
:10041800136C23F0400330BC13647047003802406B
:10042800001800401849194A0B6C43F0400330B4D7
:100438000B640025842354241585D4621380938A81
:100448009BB243F00103938213889BB243F00103EC
:10045800138050B1138ADB07FCD5138A23F00103FC
:100468001B041B0C01381382F4D10849064A0B8877
:1004780023F001031B041B0C0B80136C23F04003B7
:1004880030BC1364704700BF0038024000180040B9
:1004980009490A4B0A6C30B442F008020A64532531
:1004A8004FF0FF34002284201D85DC62188030BCA8
:1004B8009A805A62704700BF00380240000C004022
:1004C800054A938A9BB243F00103938213889BB237
:1004D80043F0010313807047000C0040044A506A3F
:1004E800138823F001031B041B0C1380704700BF03
:1004F800000C00400E490A6C4FF0804342F00102A4
:1005080030B484200A64532500224FF0FF341D853F
:10051800DC6218809A805A629A8A92B242F001028A
:100528009A821A8892B242F0010230BC1A8070474F
:10053800003802404FF08043586A70474FF08043BC
:100548005A6A824205D30844904294BF0020012091
:100558007047C34313448B422CBF002001207047CF
:100568001149124B0A6C124842F0200230B40A6456
:10057800532500214FF47A7484221D85DC621A8089
:10058800998059629A8A92B2012542F001024FF489
:1005980000049A829D8180F8371344601A8892B2C9
:1005A8002A431A8030BC70470038024000140040CB
:1005B80000E100E0054B1A8AD20705D504490A680C
:1005C800002001320A601882704700BF0014004002
:1005D80068070020014B1868704700BF68070020B3
:1005E800084B1A68824205D30844904294BF002001
:1005F80001207047C34313448B422CBF00200120C5
:10060800704700BF68070020114A124B124910B406
:10061800146B44F001041463146C44F4003414643F
:100628001A6842F0A0021A601A6A42F4EE421A628C
:100638009A6842F020029A609A6842F20C0480B2EA
:1006480042F080029A6008818C815DF8044B704703
:10065800003802400000024000440040034A13886A
:100668005B06FCD580B29080704700BF0044004014
:100678000C4A30B4441E0D2500F2FF3014F8011F57
:1006880049B113885B06FCD589B2918023780A2B7F
:1006980003D08442F2D130BC704713885B06FCD586
:1006A8009580F6E7004400400FB42DE9F0478CB080
:1006B80014AB53F804AB01939AF80020002A35D004
:1006C80000247C4DDFF8F091234651464FF00D0889
:1006D8000BE00AEB03025378BBB90134A4B22346FA
:1006E8001AF804200AEB040102B3252AF1D02B885A
:1006F8005806FCD592B2AA800B780A2BEDD12B882C
:100708005B06FCD5A5F80480E7E7623B162B75D895
:10071800DFE803F0665C4E742B747474747474743C
:100728007474747474227474747411000CB0BDE819
:10073800F04704B070479378622B00F08E80682BE6
:1007480066D0772B019B00F09B801A1D1B684FF425
:100758000060CDE9003223E0019B1A1D1868019260
:10076800FFF786FF0134A4B2B7E7019B073323F0F4
:100778000703D3E90001083309EAC10200280193FD
:1007880042EA507371F10002B8BF43F000430026FB
:1007980001F08047009356EA070332D14FF4807086
:1007A80002AA694600F0FEF802A8FFF761FFD9E740
:1007B8009378622B48D0682B3DD0772B019B68D06B
:1007C8001A1D1B682020CDE90032E9E7019B191D9D
:1007D8001A7801912B885E06FCD593B2AB80C1E7ED
:1007E8009378622B43D0682B1CD0772B019B58D071
:1007F8001A1D1B680420CDE90032D1E700230093BD
:10080800B0E7009B43F0804300934FF48070C7E744
:10081800019B01341A1D1B680192A4B200934FF486
:100828008060BDE7019B01341A1D1B680192A4B2C8
:1008380000930220B4E7019B01341A1D1B68019242
:10084800A4B200931020ABE7019B01341A1D1B686A
:100858000192A4B200930820A2E7019B01341A1D5B
:100868001B680192A4B200934FF4007098E7019BB3
:1008780001341A1D1B680192A4B2009301208FE76E
:100888001A1D01341B680192A4B200934FF4006052
:1008980086E71A1D01341B680192A4B20093202038
:1008A8007EE71A1D01341B680192A4B2009304204C
:1008B80076E700BF00440040F8FFFF3F0C4B9A89E1
:1008C80092B242F4005242F004029A811A889206C7
:1008D800FCD598881A8822F020021204120C1A807B
:1008E8009A8922F004021204120CC0B29A8170474D
:1008F800004400400D4ADFF838C0F0B400F10A06A1
:100908003027914206F8017D07D33123891A5C1CF0
:1009180091421D46E3B2F9D23570ACFB02328642F1
:100928004FEAD202EDD1F0BC704700BF00CA9A3B33
:10093800CDCCCCCC70B400F10A04002614F8013DEB
:10094800302BF5B220D00C8813550B886C1C013362
:10095800E4B29BB20A2C0B8012D0C5F1080500F155
:100968000806361BEDB2C4F10904751B044414F8DB
:100978000109D0540B8801339BB2A5420B80F6D1F4
:10098800002170BCD1547047092E01D00136D5E73B
:10099800088813540B8801339BB20B80002170BC6C
:1009A800D15470472DE9F04F87B00023B0F5807F10
:1009B8001370ADF80A3000F0D68043D8013883B2FE
:1009C8001F2B3CD81F283AD8DFE800F0788B39A0D5
:1009D80039393910393939393939391039393939D1
:1009E8003939393939393939393939100B68002BDE
:1009F80007DA2D2313700B6801205B420B60ADF8FA
:100A08000A00BF48BF4E19460DF10C0A0DF1160435
:100A18003025884204F8015D06D83023091A0133CD
:100A28008142DBB2FAD22370A6FB0030A2454FEA1E
:100A3800D000EED10DF10A015046FFF77BFF07B059
:100A4800BDE8F08FB0F5806F76D0B0F5006F18D1A3
:100A58000B68104602F10805B3F1204F4FEA1374F2
:100A680004F130032ABF3734037004700B68013077
:100A78001B0185420B60EFD10023137207B0BDE85C
:100A8800F08FB0F5007FDAD10B68C3F30313092B9D
:100A98008CBF3733303313700B68180103F00F0322
:100AA800092B94BF30333733086053700B6800202C
:100AB8001B010B60907007B0BDE8F08F0B68104603
:100AC80002F10804302631251F064CBF0570067058
:100AD8000B6801305B0084420B60F5D10023137270
:100AE800CCE70B68104602F11004302631251B04B0
:100AF8004CBF057006700B6801305B0084420B60C8
:100B0800F5D10023137407B0BDE8F08F0B681046C9
:100B180002F1200430253126002BB4BF0670057081
:100B28000B6801305B0084420B60F5D1002382F82A
:100B3800203007B0BDE8F08F0B681046151DC3F3D1
:100B48000333092B03F130048ABF37330470037071
:100B58000B6801301B0185420B60F0D10023137133
:100B680007B0BDE8F08FD1ED006AF5EEC06AF1EE8E
:100B780010FA06D52D210123F1EE666A1170ADF841
:100B88000A30F7EE007AF4EEE76AF1EE10FA00F1B7
:100B9800998040F3AD800023B2EE046A67EE867A4E
:100BA8001C46F4EEE76AF1EE10FA03F10103F5DCF6
:100BB80087EE867AA4B2202300930DF11608504ED2
:100BC800DFF840B1C4460DF10C0A4FF0300EC6EE06
:100BD800877A9FED4D7AFCEEE76A16EE903AF8EECA
:100BE800666A77EEE67A67EE877AFCEEE77A17EEC2
:100BF800905A9E42E1460CF801ED08D831219B1B22
:100C08004F1CB3420846F9B2F9D28CF80000ABFB8E
:100C18000616E2454FEAD606EBD10DF10A01504619
:100C28000191FFF787FE3648DFF8D8C001993027D1
:100C3800A842464608F8017D07D830232D1A01330B
:100C48008542DBB2FAD288F80030ACFB0030B145FF
:100C58004FEAD000ECD12E23504601918DF80F3089
:100C6800FFF768FEBDF80A000099431C65259BB292
:100C78002D2915540199ADF80A3004D1009DD55499
:100C88000230ADF80A004FF0300C1D48DFF874E070
:100C98008DF815C0A9F1020905AFAEFB0030B945C2
:100CA8004FEAD0003FF4C8AE844287F800C007D3AB
:100CB8003123241A5D1C84421E46EBB2F9D23E70E1
:100CC800013FEAE79FED117AF4EEC76AF1EE10FAF8
:100CD80013D5F0EE477A012427EE277A0134F4EE93
:100CE800C76AF1EE10FAA4B2F6D42D23009364E794
:100CF8009FED067A4FF6FF745DE70124F5E700BF24
:100D080000CA9A3BCDCCCCCC00007A44CDCCCC3DAB
:100D18002649274B274A70B40D6B274C274E45F0C0
:100D280002050D630D6B45F004050D631D6845F460
:100D380000151D60256845F0800525605D6A45F44D
:100D4800A0655D62256A45F4A04525629D6845F465
:100D580000159D60A56845F08005A5600C6C44F4FD
:100D680080440C640C6B0302B2FBF3F30533A6FB5F
:100D7800032344F480541A070C6312D5DA08013AA5
:100D88000F4BC2F34F0242F480721A840C4A138C40
:100D98009BB243F4007340F62831138470BC9183EE
:100DA8007047074AC3F30F131384EFE70038024074
:100DB80000040240008F423300080240CDCCCCCC66
:100DC80000380040A0290008000000204C0700203F
:100DD8004C070020C80700202DE9F843544B8046F3
:100DE8001A68544882422DED028B1BD052490B6879
:100DF800DA0405D40A6842F480530B60012000E04D
:100E080000204E4A4E49116013684A4A934208D15D
:100E180047490B6030B14848036823F480520260A8
:100E280000E0FEE798ED018AB5EE408A0021F1EE78
:100E380010FAC8F81C10C8F81810C8F81410C8F828
:100E48001010C8F82810C8F82410C8F8201029D0A5
:100E5800DFED3C7A28EE270A10EE100A01F0FEF8C2
:100E6800044618EE100A0D4601F0F8F80646B8F8E0
:100E780000000F4601F0E0F82BA3D3E9002301F0AE
:100E88006FFA02460B463046394600F089FF0246A3
:100E98000B462046294601F063FA01F049FBA8F801
:100EA8002C0001E0A8F82C1098ED028AB5EE408AD3
:100EB800F1EE10FA26D0B8F800904FEA092001F0B8
:100EC800BBF8044618EE100A0D4601F0C7F816A341
:100ED800D3E9002301F01AF9064648460F4601F007
:100EE800ABF802460B463046394600F059FF024639
:100EF8000B462046294601F033FA01F019FBA8F801
:100F08002E0002E00020A8F82E00B8F800204FF4C8
:100F18007A73B2FBF3F1A8F83010BDEC028BBDE890
:100F2800F88300BFAFF300801F85EB51B81E19404E
:100F38006C070020CDB5E8B53038024000300240DB
:100F4800C2A507F4000080432DE9F04F9BB083460B
:100F58001992A94A1891A9481168814200D0FEE760
:100F68009E6AB3F80CC09F699A8DD98D03960326A3
:100F78001C6A5D6A0597069206FB0CF74FEA8C021D
:100F880006264FEA4C000B910E97052106FB0CF73D
:100F98000F920722029404950D90119701FB0CF013
:100FA8004FEACC0602FB0CF100271D695C69D3F8F7
:100FB8001CA01090129117960197188EDDF80490D6
:100FC800814580F20A818E489BF800601BF80C70FE
:100FD80010F80690C25DA1448419511994F8008153
:100FE80094F8002201EB4808CDF81C80DDF8348025
:100FF8001BF80860855DC719A9180E9A97F8004173
:101008001BF8022097F8007201EB4405815C0895F3
:10101800CC1981190F9E91F8008191F8007204EBA8
:1010280048081BF80640CDF824808218055D92F820
:10103800006192F80022E91901EB460505EB080763
:10104800DDF8408015971BF808700A950419C15DF2
:1010580094F8005194F80042DDF81C808E1806EBD5
:101068004501119D089A1BF805508E18C719425D55
:101078001696161997F8002106EB42029044CDF80F
:101088005080129C97F800721BF804604519845D23
:10109800E41995F8007195F80052801904EB47049B
:1010A8004FF01C0804EB090790F80061139708FB40
:1010B80009AADDF81C800C940AEB0209152705EB38
:1010C800460490F8005207FB0890099FDDF820902D
:1010D8000A2606FB070A0F2707FB09A04FF003089B
:1010E800DDF8289008FB01004FF0060A0AFB09000A
:1010F800009015984FF0300909FB00FADDF8589078
:101108002E2000FB09A082460598824413984FF0D0
:10111800240909FB00AA14984FF02A0909FB00AA20
:101128000898DDF8249008FB00F8062000FB0988E1
:10113800DDF81C9008EB090007FB01010A9F0C98D9
:10114800DDF8009006FB07181C2606FB0081152712
:101158000B9807FB02120592A9F5003868B1029EA8
:10116800049FCDF8108006EB0801CE1B46434FF4D0
:10117800807296FBF2F002908046069961B1039E58
:1011880008FB01F8C1F5807706FB07894FF48072E8
:1011980099FBF2F003908046199901FB08F7002F9C
:1011A80002DD0837381103E0083F102697FBF6F0F8
:1011B80047F6BC72019E1349189FDDF85C80904287
:1011C800A8BF1046DA8972438842A8BF0146013693
:1011D80027F81210C3440196EFE61D615C61029D79
:1011E800059C1D629C61039D049CC3F81CA05C6265
:1011F8009D621BB0BDE8F08F6C070020CDB5E8B547
:10120800180000204480FFFF2DE9F04FA1B0C74C23
:101218001F92C74A1E911168A14200D0FEE79F6A3B
:101228009A69998DDC8D04979F89069207910F948E
:101238000322052106241D6A5E6A03957A437943D1
:101248007C43129214911594072209210A247943A8
:1012580005964FEA47084FEA87097A434FEAC70AD3
:101268007C431E695D69D3F81CB01891CDF84480A1
:10127800CDF84C901692CDF85CA01D9400210291F7
:101288001A8E0299914280F25981AA4A047812F87A
:101298000490A944C55D111912F8058091F8004120
:1012A80091F800A2464406EB4406119C0896045D9A
:1012B8005519165D95F800C195F8005206EB0A0815
:1012C80008EB4C0ADDF84880CDF824A010F8081087
:1012D800DDF84C80565C141906EB050A10F8085026
:1012E80094F800C1565D94F8004251180AEB4C0C72
:1012F800361991F800A1149C91F80012CDF828C075
:1013080006EB4A08065DCDF82C80945DDDF8548024
:10131800551904EB010A95F8004195F800520AEBBB
:1013280044010C9110F808109619545C641996F849
:10133800005104EB45040D94169D96F80062DDF803
:1013480024A0DDF85C80A444445DCDF86CC0155D34
:101358005118AD1991F8006191F8001205EB460596
:1013680005EB0A060E9510F808501C961419565DE0
:10137800DDF860A0711894F8006194F8004201EB60
:10138800460C08990CEB01061A9610F80A605519D4
:10139800915D9219091995F8004192F8006195F844
:1013A800005201EB44012D2401EB090804FB09BBA1
:1013B80010910899CDF864800BEB0C09DDF82880B2
:1013C80005EB460592F80062242202FB019A1524D7
:1013D80004FB08A9DDF824A00C994FF01C0B0BFBAB
:1013E8000A994FF00A08DDF82CA008FB01994FF084
:1013F8000F0B0E990BFB0A994FF00308DDF834A088
:1014080008FB01994FF0060B0BFB0A99CDF80490E5
:10141800DDF82CA00C994FF04B0B51440BFB01F954
:101428001B994FF0490A0AFB019B0699DDF8689061
:101438000BEB010A4FF03F0B1C990BFB09AA4FF06D
:10144800450BDDF864900BFB01AA4FF0370B0BFB43
:1014580009ABDDF824A00A9908FB0AF84FF0060941
:10146800DDF820A009FB01880C99D0444FF00F0942
:10147800DDF82CA009FB01880A21DDF8389001FB72
:101488000A884FF01C0A0D990AFB098804FB018A97
:10149800109C0F994FF02D0909FB04A8DDF804A052
:1014A80002FB0C820692AAF57A3971B1039C059960
:1014B800CDF8149004EB0902541A0F9A4FF4807176
:1014C800544394FBF1F40394A146079961B1049C39
:1014D800C1F5807209FB01FC04FB02C94FF480715D
:1014E80099FBF1F2049291461F9C04FB09F1002933
:1014F80002DD10314C1103E01039202291FBF2F487
:1015080047F6BC718C42A8BF0C46DA890299DDF80F
:1015180074804A4308498C42A8BF21461E9C24F87F
:101528001210029A4044511CA9E600BFCDB5E8B597
:101538006C070020180000204480FFFF05981E61FA
:101548005D61039E069D049C58629D61C3F81CB0B2
:101558001E629C62104621B0BDE8F08F2DE9F04F65
:1015680095B0994C1392994A12911168A14200D0F2
:10157800FEE75E6A1D6A9F6A9A69998DB3F82E80A4
:101588000C964FF00009D3F810C05E69D3F81CB070
:101598000195029709920A91CDF83480CDF80C9004
:1015A8008B4904780D190C5D95F8007295F8008147
:1015B80006EB070A067ACDF82CA08F198E5D97F8EE
:1015C800002202EB4805AC44057C97F80081CDF871
:1015D80010C04A194D5D92F8009292F8002109EB6B
:1015E800040A0AEB480C90F818A090F82090CDF85F
:1015F80014C001EB0A0494F8007294F80041BF1972
:1016080007EB420801EB0902CDF8188092F8006256
:1016180092F80021771907EB440606EB080C90F8BE
:10162800288011F80A70079601EB0805CDF840C02C
:1016380095F8004295F80051E619059F06EB42041B
:10164800E619119690F8306008948C1911F8097011
:1016580094F80022D219049F02EB4502BD180F9599
:1016680090F8385011F8089094F80041DDF82C8073
:101678008E5D4F1997F800A297F800710AEB090CD4
:101688000CEB4404DDF818A011F805C000941C25E3
:1016980005FB082944440A21DDF8148001FB0A9956
:1016A80006EB4706DDF820A00F2707FB0899032162
:1016B80001FB0A99DDF81CA04FF0060808FB0A99FF
:1016C800DDF810A0152101FB0A99CB44DDF8449000
:1016D800CDF82CB04FF02E0A0AFB09FADDF840903D
:1016E8004FF0300B0BFB09AA4FF0240B0BFB04A99E
:1016F8000F9C4FF02A0A0AFB049B099CDDF81890FE
:10170800DDF810A0A344059C08FB09A8DDF820A07B
:101718004FF0030909FB0488079C07FB0A890A277D
:1017280007FB0498DDF80090DDF82CA00C9F05FB62
:10173800098501FB025201990992AAF500328C1819
:101748000D99DDF82880E51B4D434FF4807195FB1A
:10175800F1F40194019F44467C43029FC8EB0105C4
:1017680007FB054595FBF1F10291139C61430029A4
:1017780002DD0831091103E00839102791FBF7F160
:1017880047F6BC75134C129F0C92A942A8BF294674
:10179800039DA142B8BF214679530C354030C02D76
:1017A80003957FF4FDAE0998019C029D9861C3F8EA
:1017B80010C05E61C3F81CB01C625A629D621020A2
:1017C80015B0BDE8F08F00BFCDB5E8B56C070020B7
:1017D800180000204480FFFF2DE9F04FA1B0844697
:1017E8001F92BE4A1E91BE481168814200D0FEE792
:1017F8009E6A9F6905969E89D98D01967000079704
:1018080003277E43119001989A8D0F911296052116
:10181800019E08924843B2001490019E01980199D4
:10182800139206277E430722C70051431596179740
:10183800019E019F1C6A5D6A169109220A2156437E
:101848004F434FF00008049406955C691D69D3F86E
:101858001CB018961D97CDF80C80188EDDF80C90EA
:10186800814580F25A819F499CF80000DDF8049078
:101878000F181CF8096097F800A297F80021085C77
:10188800A2448C198E5D94F8008294F80041454476
:1018980005EB4207119D09971CF805504A194D5D43
:1018A80092F8007292F800813F18129807EB4409E9
:1018B8001CF80040CDF8289008190C5D90F80072CB
:1018C80090F80001BF1907EB4809DDF84C80CDF806
:1018D8002C901CF8089001EB0902CDF8089092F8BA
:1018E800006292F800217719149E1CF80690159E44
:1018F80007EB400801EB0900CDF8308090F8005262
:1019080090F800012F1907EB42081CF80670029D99
:10191800CDF83480CA194E5D92F80042A41904EB40
:1019280040050295DDF82C80169E92F80021CF5DC7
:10193800A844CDF86C801CF8068011F80950DDF831
:10194800609001EB080011F8088090F8004290F8C8
:10195800000166190A9D06EB4204179A0E9466194F
:101968001C961CF802608C198E5D94F8002294F87D
:101978000041D519099F05EB4002D5191A951CF8A5
:1019880009504F194D5D97F8000297F800714044CF
:1019980000EB44002D2100EB0A0401FB0ABB109068
:1019A800099819940BEB020A06EB470424210B9FB4
:1019B80001FB00A94FF01508DDF828A00D9808FBD9
:1019C80007964FF01C0B0BFB0A69DDF830800A26DE
:1019D80006FB009A0F27DDF8389007FB08AB4FF09D
:1019E800030808FB09BADDF808B0062000FB0BA9BC
:1019F800CDF80090DDF834A0DDF830B04FF04B0999
:101A08000AEB0B0009FB00FA1B984FF0490B0BFB84
:101A180000A9079809EB000ADDF868901C984FF0B8
:101A28003F0B0BFB09AA4FF0450BDDF864900BFB4D
:101A380000AA4FF0370B0BFB09ABDDF828A00B9879
:101A480008FB0AF84FF00609DDF824A009FB008816
:101A58000D9808EB0A0907FB00980C9FDDF83890F1
:101A6800029806FB07864FF01C0A0AFB096815272F
:101A780007FB008610980F9F4FF02D0909FB006A9D
:101A880001FB02A2DDF800A00792AAF57A386FB12F
:101A98000499069ECDF8188001EB0800811B794354
:101AA8004FF4807291FBF2F70497B846089860B13A
:101AB800059908FB00F8C0F5807601FB06894FF40C
:101AC800807299FBF2F70597B8461F9800FB08F655
:101AD800002E09DD103677110AE000BF6C070020E0
:101AE800CDB5E8B518000020103E202196FBF1F78F
:101AF800039ED8891049DDF8748047F6BC72974276
:101B0800A8BF17468F42A8BF394670431E9F721C54
:101B180027F81010C44403929FE65C61079C049A5E
:101B28009C61059E069C1D61C3F81CB01A625C622C
:101B38009E6221B0BDE8F08F4480FFFFAFF30080C4
:101B480070B54FF0FF0C4CF4E06C1CEA11541DBF4B
:101B58001CEA135594EA0C0F95EA0C0F00F0DEF816
:101B68002C4481EA030621EA4C5123EA4C5350EAFB
:101B7800013518BF52EA033541F4801143F480134C
:101B880038D0A0FB02CE4FF00005E1FB02E506F0DD
:101B98000042E0FB03E54FF00006E1FB03569CF032
:101BA800000F18BF4EF0010EA4F1FF04B6F5007F38
:101BB80064F5407404D25FEA4E0E6D4146EB0606AA
:101BC80042EAC62141EA55514FEAC52040EA5E5033
:101BD8004FEACE2EB4F1FD0C88BFBCF5E06F1ED8DD
:101BE800BEF1004F08BF5FEA500E50F1000041EB14
:101BF800045170BD06F0004646EA010140EA0200C1
:101C080081EA0301B4EB5C04C2BFD4EB0C0541EAE2
:101C1800045170BD41F480114FF0000E013C00F3F7
:101C2800AB8014F1360FDEBF002001F0004170BD1B
:101C3800C4F10004203C35DA0C341BDC04F1140434
:101C4800C4F1200500FA05F320FA04F001FA05F2C0
:101C580040EA020001F0004221F0004110EBD3708D
:101C680021FA04F642EB06015EEA430E08BF20EAB9
:101C7800D37070BDC4F10C04C4F1200500FA04F35C
:101C880020FA05F001FA04F240EA020001F00041EE
:101C980010EBD37041F100015EEA430E08BF20EA61
:101CA800D37070BDC4F1200500FA05F24EEA020EA9
:101CB80020FA04F301FA05F243EA020321FA04F0D8
:101CC80001F0004121FA04F220EA020000EBD3708F
:101CD8005EEA430E08BF20EAD37070BD94F0000F8F
:101CE8000FD101F00046400041EB010111F4801FC3
:101CF80008BF013CF7D041EA060195F0000F18BF74
:101D0800704703F00046520043EB030313F4801FAF
:101D180008BF013DF7D043EA0603704794EA0C0F69
:101D28000CEA135518BF95EA0C0F0CD050EA41067F
:101D380018BF52EA4306D1D181EA030101F00041FC
:101D48004FF0000070BD50EA410606BF1046194624
:101D580052EA430619D094EA0C0F02D150EA013630
:101D680013D195EA0C0F05D152EA03361CBF104671
:101D780019460AD181EA030101F0004141F0FE4110
:101D880041F470014FF0000070BD41F0FE4141F494
:101D9800780170BD81F0004102E000BF83F000438C
:101DA80030B54FEA41044FEA430594EA050F08BFEE
:101DB80090EA020F1FBF54EA000C55EA020C7FEAB2
:101DC800645C7FEA655C00F0E2804FEA5454D4EB2F
:101DD8005555B8BF6D420CDD2C4480EA020281EAF9
:101DE800030382EA000083EA010180EA020281EA31
:101DF8000303362D88BF30BD11F0004F4FEA013183
:101E08004FF4801C4CEA113102D0404261EB410191
:101E180013F0004F4FEA03334CEA133302D0524217
:101E280063EB430394EA050F00F0A780A4F10104D3
:101E3800D5F1200E0DDB02FA0EFC22FA05F280180D
:101E480041F1000103FA0EF2801843FA05F35941F3
:101E58000EE0A5F120050EF1200E012A03FA0EFC72
:101E680028BF4CF0020C43FA05F3C01851EBE3719C
:101E780001F0004507D54FF0000EDCF1000C7EEBB9
:101E880000006EEB0101B1F5801F1BD3B1F5001FF7
:101E98000CD349085FEA30004FEA3C0C04F1010416
:101EA8004FEA445212F5800F80F09A80BCF1004F3F
:101EB80008BF5FEA500C50F1000041EB045141EAC1
:101EC800050130BD5FEA4C0C404141EB0101013C8A
:101ED80028BFB1F5801FE9D291F0000F04BF014679
:101EE8000020B1FA81F308BF2033A3F10B03B3F14B
:101EF80020020CDA0C3208DD02F1140CC2F10C02DB
:101F080001FA0CF021FA02F10CE002F11402D8BF38
:101F1800C2F1200C01FA02F120FA0CFCDCBF41EA04
:101F28000C019040E41AA2BF01EB0451294330BDD3
:101F38006FEA04041F3C1CDA0C340EDC04F11404B0
:101F4800C4F1200220FA04F001FA02F340EA030087
:101F580021FA04F345EA030130BDC4F10C04C4F1CD
:101F6800200220FA02F001FA04F340EA03002946AD
:101F780030BD21FA04F0294630BD94F0000F83F4F7
:101F8800801306BF81F480110134013D4EE77FEADA
:101F9800645C18BF7FEA655C29D094EA050F08BF26
:101FA80090EA020F05D054EA000C04BF1946104607
:101FB80030BD91EA030F1EBF0021002030BD5FEA4B
:101FC800545C05D14000494128BF41F0004130BD73
:101FD80014F580043CBF01F5801130BD01F00045C7
:101FE80045F0FE4141F470014FF0000030BD7FEA3A
:101FF800645C1ABF194610467FEA655C1CBF0B4635
:10200800024650EA013406BF52EA033591EA030F4B
:1020180041F4002130BD00BF90F0000F04BF002143
:10202800704730B54FF4806404F132044FF0000576
:102038004FF0000150E700BF90F0000F04BF0021EF
:10204800704730B54FF4806404F1320410F0004555
:1020580048BF40424FF000013EE700BF42004FEA50
:10206800E2014FEA31014FEA02701FBF12F07F43CD
:1020780093F07F4F81F06051704732F07F4208BF84
:10208800704793F07F4F04BF41F40021704730B58B
:102098004FF4607401F0004521F000411CE700BFD7
:1020A80050EA010208BF704730B54FF000050AE05A
:1020B80050EA010208BF704730B511F0004502D55B
:1020C800404261EB41014FF4806404F132045FEA5D
:1020D800915C3FF4D8AE4FF003025FEADC0C18BF06
:1020E80003325FEADC0C18BF033202EBDC02C2F1F8
:1020F800200300FA03FC20FA02F001FA03FE40EA8A
:102108000E0021FA02F11444BDE600BF70B54FF08D
:10211800FF0C4CF4E06C1CEA11541DBF1CEA13556B
:1021280094EA0C0F95EA0C0F00F0DEF82C4481EAD3
:10213800030621EA4C5123EA4C5350EA013518BFF3
:1021480052EA033541F4801143F4801338D0A0FBE0
:1021580002CE4FF00005E1FB02E506F00042E0FB8D
:1021680003E54FF00006E1FB03569CF0000F18BF93
:102178004EF0010EA4F1FF04B6F5007F64F540743B
:1021880004D25FEA4E0E6D4146EB060642EAC621CE
:1021980041EA55514FEAC52040EA5E504FEACE2E3B
:1021A800B4F1FD0C88BFBCF5E06F1ED8BEF1004F3E
:1021B80008BF5FEA500E50F1000041EB045170BDBA
:1021C80006F0004646EA010140EA020081EA0301FE
:1021D800B4EB5C04C2BFD4EB0C0541EA045170BDFA
:1021E80041F480114FF0000E013C00F3AB8014F174
:1021F800360FDEBF002001F0004170BDC4F10004BD
:10220800203C35DA0C341BDC04F11404C4F120053D
:1022180000FA05F320FA04F001FA05F240EA020098
:1022280001F0004221F0004110EBD37021FA04F6CE
:1022380042EB06015EEA430E08BF20EAD37070BD88
:10224800C4F10C04C4F1200500FA04F320FA05F0E7
:1022580001FA04F240EA020001F0004110EBD370E9
:1022680041F100015EEA430E08BF20EAD37070BD59
:10227800C4F1200500FA05F24EEA020E20FA04F332
:1022880001FA05F243EA020321FA04F001F00041E1
:1022980021FA04F220EA020000EBD3705EEA430E52
:1022A80008BF20EAD37070BD94F0000F0FD101F081
:1022B8000046400041EB010111F4801F08BF013CBA
:1022C800F7D041EA060195F0000F18BF704703F0F8
:1022D8000046520043EB030313F4801F08BF013D7F
:1022E800F7D043EA0603704794EA0C0F0CEA13553B
:1022F80018BF95EA0C0F0CD050EA410618BF52EAF5
:102308004306D1D181EA030101F000414FF00000FA
:1023180070BD50EA410606BF1046194652EA430608
:1023280019D094EA0C0F02D150EA013613D195EA7C
:102338000C0F05D152EA03361CBF104619460AD1C4
:1023480081EA030101F0004141F0FE4141F47001CE
:102358004FF0000070BD41F0FE4141F4780170BDBE
:1023680070B54FF0FF0C4CF4E06C1CEA11541DBF23
:102378001CEA135594EA0C0F95EA0C0F00F0A7F825
:10238800A4EB050481EA030E52EA03354FEA013152
:1023980000F088804FEA03334FF0805545EA131365
:1023A80043EA12634FEA022245EA111545EA10652D
:1023B8004FEA00260EF000419D4208BF964244F1C4
:1023C800FD0404F5407402D25B084FEA3202B61AE3
:1023D80065EB03055B084FEA32024FF480104FF4B7
:1023E800002CB6EB020E75EB030E22BFB61A75462B
:1023F80040EA0C005B084FEA3202B6EB020E75EBBE
:10240800030E22BFB61A754640EA5C005B084FEA25
:102418003202B6EB020E75EB030E22BFB61A7546F2
:1024280040EA9C005B084FEA3202B6EB020E75EBFD
:10243800030E22BFB61A754640EADC0055EA060EBE
:1024480018D04FEA051545EA16754FEA06164FEA01
:10245800C30343EA52734FEAC2025FEA1C1CC0D1AD
:1024680011F4801F0BD141EA00014FF000004FF03A
:10247800004CB6E711F4801F04BF01430020B4F1FB
:10248800FD0C88BFBCF5E06F3FF6AFAEB5EB030CB3
:1024980004BFB6EB020C5FEA500C50F1000041EBB0
:1024A800045170BD0EF0004E4EEA113114EB5C047D
:1024B800C2BFD4EB0C0541EA045170BD41F4801150
:1024C8004FF0000E013C90E645EA060E8DE60CEA58
:1024D800135594EA0C0F08BF95EA0C0F3FF43BAF75
:1024E80094EA0C0F0AD150EA01347FF434AF95EA2C
:1024F8000C0F7FF425AF104619462CE795EA0C0F10
:1025080006D152EA03353FF4FDAE1046194622E7DC
:1025180050EA410618BF52EA43067FF4C5AE50EAB6
:1025280041047FF40DAF52EA43057FF4EBAE12E7A6
:102538004A0011D212F5001211D20DD56FF478733A
:10254800B3EB62520ED44FEAC12343F0004343EA8F
:10255800505323FA02F070474FF00000704750EADA
:10256800013002D14FF0FF3070474FF00000704744
:102578002DE9F0472D4B2E492E489960ADF5006D99
:102588004FF001124FF47A540DF2FE35DA601C80D8
:1025980058600DF2FE712B46002223F8022F8B4261
:1025A800FBD12D20FEF730F84FF4FA40FEF7B0FBD0
:1025B800214A1E48136B214C43F480531363804611
:1025C800FEF70AFCA38B9BB243F48063A3830DF24E
:1025D800FE46ADF102026F462389D907FCD523894F
:1025E8001B06FCD4A3895BBA22F8023FAA42F3D1A6
:1025F800FEF764F90DF5806AD146494638464346E8
:102608001E228037FEF7A0FCBA4509F12009F4D153
:102618002F4637F9029FC9F30720FEF71FF85FFA24
:1026280089F0FEF71BF8BE42F3D1D2E7700700200D
:10263800000020410000FA45003802400038004000
:10264800002103E00B4B5B58435004310A480B4B05
:1026580042189A42F6D30A4A02E0002342F8043BA1
:10266800084B9A42F9D3FDF7E5FD00F01FF8FFF794
:102678007FFF7047A0290008000000204C070020B9
:102688004C070020C8070020FEE7000008B500211D
:10269800044600F089F8044B1868C36B03B19847E7
:1026A800204600F06FF900BF6C29000870B50D4E88
:1026B8000D4D761BB61006D0002455F8043B0134A6
:1026C8009847A642F9D1094E094D761B00F04EF9FC
:1026D800B61006D0002455F8043B01349847A642AA
:1026E800F9D170BD94290008942900089C29000894
:1026F80094290008F0B4860746D0541E002A3CD01E
:10270800CAB2034601E0013C37D303F8012B9D0709
:10271800F9D1032C2AD9CDB245EA05250F2C45EA73
:10272800054534D9A4F1100222F00F0C03F120075B
:102738001609674403F1100242E9045542E90255BB
:102748001032BA42F8D1721C14F00C0F03EB0212CB
:1027580004F00F0613D0331F23F00303043313448C
:1027680042F8045B9342FBD106F003042CB1CAB2D1
:102778001C4403F8012B9C42FBD1F0BC7047344643
:102788001346002CF3D1F8E714460346C1E71A466E
:102798002646E0E7024B13B1024800F06BB87047D9
:1027A80000000000892800082DE9F84F2F4B2DED77
:1027B800028B834618680F4600F082F82C4BD3F83A
:1027C8000080D8F84861AEB108EE10BA4FF00109A0
:1027D8004FF0000A7468651E0CD4013406EB8404BB
:1027E80087B1D4F80031BB420CD0013D6B1CA4F179
:1027F8000404F5D1BDEC028B1C4B1868BDE8F84FFA
:1028080000F066B873682268013BAB420CBF756084
:10281800C4F800A0002AE8D0D6F88801D6F804B099
:1028280009FA05F101420BD1904772685A4513D154
:10283800D8F84831B342D8D01E46002ECAD1D9E7BD
:10284800D6F88C0101420CD1D4F8801018EE100A89
:10285800904772685A45EBD0D8F84861002EB9D134
:10286800C8E7D4F880009047DFE700BF480700209A
:102878006C290008002301461A46184600F02AB8B9
:1028880038B5084B084D5B1B9C1007D0043B1D4412
:10289800013C55F804399847002CF9D1BDE8384077
:1028A80000F06AB8A02900089C290008704700BFFA
:1028B800704700BF704700BF704700BF704700BF38
:1028C800704700BF0120704701207047704700BF64
:1028D800704700BF2DE9F047DFF880A00646DAF818
:1028E800000098460F469146FFF7EAFF1A4B1B680F
:1028F800D3F8484124B365681F2D26DC5EB9AB1CAC
:102908000135DAF80000656044F82370FFF7E0FF4E
:102918000020BDE8F08704EB85030121C3F8889007
:10292800D4F88821A9400A43022EC4F88821C3F8A4
:102938000881E4D1D4F88C311943C4F88C11DEE74E
:1029480003F5A674C3F84841D5E7DAF80000FFF7A5
:10295800BFFF4FF0FF30DCE76C2900084807002074
:10296800FEE700BF2003002000000000F8B500BF0C
:10297800F8BC08BC9E467047F8B500BFF8BC08BC58
:042988009E467047B0
:08298C003CD8FF7F01000000B0
:082994009D270008AD010008B9
:04299C0089010008A5
:1029A000000000000000000000000000010203041D
:1029B00006070809007A030A000001010303040462
:1029C0000606070709090A0A0A0A0B0B0D0D0E0E67
:1029D00010101111131314140F0F101012121313DF
:1029E000151516161818191919191A1A1C1C1D1D57
:1029F0001F1F202022222323151516161818191917
:102A00001B1B1C1C1E1E1F1F1F1F202022222323D6
:102A1000252526262828292924242525272728284E
:102A20002A2A2B2B2D2D2E2E2E2E2F2F31313232C6
:102A300034343535373738381C1C1D1D1F1F2020F6
:102A400022222323252526262626272729292A2A26
:102A50002C2C2D2D2F2F30302B2B2C2C2E2E2F2F9E
:102A60003131323234343535353536363838393916
:102A70003B3B3C3C3E3E3F3F3131323234343535D6
:102A8000373738383A3A3B3B3B3B3C3C3E3E3F3F96
:102A9000414142424444454540404141434344440E
:102AA0004646474749494A4A4A4A4B4B4D4D4E4E86
:102AB00050505151535354540012152717292C3E8E
:102AC000182A2D3F2F414456182A2D3F2F41445696
:102AD0003042455747595C6E17292C3E2E404355CE
:102AE0002F41445646585B6D2F41445646585B6D06
:102AF00047595C6E5E70738515272A3C2C3E415306
:102B00002D3F42544456596B2D3F42544456596B05
:102B100045575A6C5C6E71832C3E41534355586A3D
:102B20004456596B5B6D70824456596B5B6D708275
:102B30005C6E71837385889A12242739293B3E5035
:102B40002A3C3F51415356682A3C3F5141535668F5
:102B500042545769596B6E80293B3E50405255672D
:102B600041535668586A6D7F41535668586A6D7F65
:102B7000596B6E807082859727393C4E3E50536565
:102B80003F51546656686B7D3F51546656686B7D65
:102B900057696C7E6E8083953E50536555676A7C9D
:102BA00056686B7D6D7F829456686B7D6D7F8294D5
:102BB0006E80839585979AAC001C15310F2B2440AD
:102BC0000A261F3B19352E4A06221B3715312A4685
:102BD000102C25411F3B3450031F1834122E27435D
:102BE0000D29223E1C38314D09251E3A18342D4935
:102BF000132F2844223E3753011D1632102C254135
:102C00000B27203C1A362F4B07231C3816322B4734
:102C1000112D2642203C355104201935132F28440C
:102C20000E2A233F1D39324E0A261F3B19352E4AE4
:102C300014302945233F3854001C15310F2B2440F4
:102C40000A261F3B19352E4A06221B3715312A4604
:102C5000102C25411F3B3450031F1834122E2743DC
:102C60000D29223E1C38314D09251E3A18342D49B4
:102C7000132F2844223E3753011D1632102C2541B4
:102C80000B27203C1A362F4B07231C3816322B47B4
:102C9000112D2642203C355104201935132F28448C
:102CA0000E2A233F1D39324E0A261F3B19352E4A64
:102CB00014302945233F3854200300200000000031
:102CC000000000000C06002074060020DC06002036
:102CD00000000000000000000000000000000000F4
:102CE00000000000000000000000000000000000E4
:102CF00000000000000000000000000000000000D4
:102D000000000000000000000000000000000000C3
:102D100000000000000000000000000000000000B3
:102D200000000000000000000000000000000000A3
:102D30000000000000000000000000000000000093
:102D40000000000000000000000000000000000083
:102D50000000000000000000000000000000000073
:102D60000000000000000000010000000000000062
:102D70000E33CDAB34126DE6ECDE05000B00000027
:102D80000000000000000000000000000000000043
:102D90000000000000000000000000000000000033
:102DA0000000000000000000000000000000000023
:102DB0000000000000000000000000000000000013
:0C30E0000000000000000000A407002019
:040000050800264980
:00000001FF
